{
	"contracts/J.if-else.sol": {
		"IfElse": {
			"abi": [
				{
					"inputs": [
						{
							"internalType": "uint256",
							"name": "x",
							"type": "uint256"
						}
					],
					"name": "foo",
					"outputs": [
						{
							"internalType": "uint256",
							"name": "",
							"type": "uint256"
						}
					],
					"stateMutability": "pure",
					"type": "function"
				},
				{
					"inputs": [
						{
							"internalType": "uint256",
							"name": "_x",
							"type": "uint256"
						}
					],
					"name": "tenary",
					"outputs": [
						{
							"internalType": "uint256",
							"name": "",
							"type": "uint256"
						}
					],
					"stateMutability": "pure",
					"type": "function"
				}
			],
			"devdoc": {
				"kind": "dev",
				"methods": {},
				"version": 1
			},
			"evm": {
				"assembly": "    /* \"contracts/J.if-else.sol\":94:469  contract IfElse{... */\n  mstore(0x40, 0x80)\n  callvalue\n  dup1\n  iszero\n  tag_1\n  jumpi\n  0x00\n  dup1\n  revert\ntag_1:\n  pop\n  dataSize(sub_0)\n  dup1\n  dataOffset(sub_0)\n  0x00\n  codecopy\n  0x00\n  return\nstop\n\nsub_0: assembly {\n        /* \"contracts/J.if-else.sol\":94:469  contract IfElse{... */\n      mstore(0x40, 0x80)\n      callvalue\n      dup1\n      iszero\n      tag_1\n      jumpi\n      0x00\n      dup1\n      revert\n    tag_1:\n      pop\n      jumpi(tag_2, lt(calldatasize, 0x04))\n      shr(0xe0, calldataload(0x00))\n      dup1\n      0x2fbebd38\n      eq\n      tag_3\n      jumpi\n      dup1\n      0x67b58887\n      eq\n      tag_4\n      jumpi\n    tag_2:\n      0x00\n      dup1\n      revert\n        /* \"contracts/J.if-else.sol\":115:314  function foo(uint x)public pure returns (uint){... */\n    tag_3:\n      tag_5\n      0x04\n      dup1\n      calldatasize\n      sub\n      dup2\n      add\n      swap1\n      tag_6\n      swap2\n      swap1\n      tag_7\n      jump\t// in\n    tag_6:\n      tag_8\n      jump\t// in\n    tag_5:\n      mload(0x40)\n      tag_9\n      swap2\n      swap1\n      tag_10\n      jump\t// in\n    tag_9:\n      mload(0x40)\n      dup1\n      swap2\n      sub\n      swap1\n      return\n        /* \"contracts/J.if-else.sol\":320:467  function tenary(uint _x)public pure returns (uint){... */\n    tag_4:\n      tag_11\n      0x04\n      dup1\n      calldatasize\n      sub\n      dup2\n      add\n      swap1\n      tag_12\n      swap2\n      swap1\n      tag_7\n      jump\t// in\n    tag_12:\n      tag_13\n      jump\t// in\n    tag_11:\n      mload(0x40)\n      tag_14\n      swap2\n      swap1\n      tag_10\n      jump\t// in\n    tag_14:\n      mload(0x40)\n      dup1\n      swap2\n      sub\n      swap1\n      return\n        /* \"contracts/J.if-else.sol\":115:314  function foo(uint x)public pure returns (uint){... */\n    tag_8:\n        /* \"contracts/J.if-else.sol\":156:160  uint */\n      0x00\n        /* \"contracts/J.if-else.sol\":179:181  10 */\n      0x0a\n        /* \"contracts/J.if-else.sol\":175:176  x */\n      dup3\n        /* \"contracts/J.if-else.sol\":175:181  x < 10 */\n      lt\n        /* \"contracts/J.if-else.sol\":171:308  if (x < 10){... */\n      iszero\n      tag_16\n      jumpi\n        /* \"contracts/J.if-else.sol\":203:205  10 */\n      0x0a\n        /* \"contracts/J.if-else.sol\":196:205  return 10 */\n      swap1\n      pop\n      jump(tag_15)\n        /* \"contracts/J.if-else.sol\":171:308  if (x < 10){... */\n    tag_16:\n        /* \"contracts/J.if-else.sol\":230:232  20 */\n      0x14\n        /* \"contracts/J.if-else.sol\":226:227  x */\n      dup3\n        /* \"contracts/J.if-else.sol\":226:232  x < 20 */\n      lt\n        /* \"contracts/J.if-else.sol\":222:308  if (x < 20) {... */\n      iszero\n      tag_18\n      jumpi\n        /* \"contracts/J.if-else.sol\":255:257  20 */\n      0x14\n        /* \"contracts/J.if-else.sol\":248:257  return 20 */\n      swap1\n      pop\n      jump(tag_15)\n        /* \"contracts/J.if-else.sol\":222:308  if (x < 20) {... */\n    tag_18:\n        /* \"contracts/J.if-else.sol\":295:297  30 */\n      0x1e\n        /* \"contracts/J.if-else.sol\":288:297  return 30 */\n      swap1\n      pop\n        /* \"contracts/J.if-else.sol\":115:314  function foo(uint x)public pure returns (uint){... */\n    tag_15:\n      swap2\n      swap1\n      pop\n      jump\t// out\n        /* \"contracts/J.if-else.sol\":320:467  function tenary(uint _x)public pure returns (uint){... */\n    tag_13:\n        /* \"contracts/J.if-else.sol\":365:369  uint */\n      0x00\n        /* \"contracts/J.if-else.sol\":436:438  10 */\n      0x0a\n        /* \"contracts/J.if-else.sol\":431:433  _x */\n      dup3\n        /* \"contracts/J.if-else.sol\":431:438  _x < 10 */\n      lt\n        /* \"contracts/J.if-else.sol\":431:460  _x < 10 ? 0 : _x < 20 ? 1 : 2 */\n      tag_21\n      jumpi\n        /* \"contracts/J.if-else.sol\":450:452  20 */\n      0x14\n        /* \"contracts/J.if-else.sol\":445:447  _x */\n      dup3\n        /* \"contracts/J.if-else.sol\":445:452  _x < 20 */\n      lt\n        /* \"contracts/J.if-else.sol\":445:460  _x < 20 ? 1 : 2 */\n      tag_22\n      jumpi\n        /* \"contracts/J.if-else.sol\":459:460  2 */\n      0x02\n        /* \"contracts/J.if-else.sol\":445:460  _x < 20 ? 1 : 2 */\n      jump(tag_23)\n    tag_22:\n        /* \"contracts/J.if-else.sol\":455:456  1 */\n      0x01\n        /* \"contracts/J.if-else.sol\":445:460  _x < 20 ? 1 : 2 */\n    tag_23:\n        /* \"contracts/J.if-else.sol\":431:460  _x < 10 ? 0 : _x < 20 ? 1 : 2 */\n      jump(tag_24)\n    tag_21:\n        /* \"contracts/J.if-else.sol\":441:442  0 */\n      0x00\n        /* \"contracts/J.if-else.sol\":431:460  _x < 10 ? 0 : _x < 20 ? 1 : 2 */\n    tag_24:\n        /* \"contracts/J.if-else.sol\":424:460  return _x < 10 ? 0 : _x < 20 ? 1 : 2 */\n      0xff\n      and\n      swap1\n      pop\n        /* \"contracts/J.if-else.sol\":320:467  function tenary(uint _x)public pure returns (uint){... */\n      swap2\n      swap1\n      pop\n      jump\t// out\n        /* \"#utility.yul\":88:205   */\n    tag_26:\n        /* \"#utility.yul\":197:198   */\n      0x00\n        /* \"#utility.yul\":194:195   */\n      dup1\n        /* \"#utility.yul\":187:199   */\n      revert\n        /* \"#utility.yul\":334:411   */\n    tag_28:\n        /* \"#utility.yul\":371:378   */\n      0x00\n        /* \"#utility.yul\":400:405   */\n      dup2\n        /* \"#utility.yul\":389:405   */\n      swap1\n      pop\n        /* \"#utility.yul\":334:411   */\n      swap2\n      swap1\n      pop\n      jump\t// out\n        /* \"#utility.yul\":417:539   */\n    tag_29:\n        /* \"#utility.yul\":490:514   */\n      tag_38\n        /* \"#utility.yul\":508:513   */\n      dup2\n        /* \"#utility.yul\":490:514   */\n      tag_28\n      jump\t// in\n    tag_38:\n        /* \"#utility.yul\":483:488   */\n      dup2\n        /* \"#utility.yul\":480:515   */\n      eq\n        /* \"#utility.yul\":470:533   */\n      tag_39\n      jumpi\n        /* \"#utility.yul\":529:530   */\n      0x00\n        /* \"#utility.yul\":526:527   */\n      dup1\n        /* \"#utility.yul\":519:531   */\n      revert\n        /* \"#utility.yul\":470:533   */\n    tag_39:\n        /* \"#utility.yul\":417:539   */\n      pop\n      jump\t// out\n        /* \"#utility.yul\":545:684   */\n    tag_30:\n        /* \"#utility.yul\":591:596   */\n      0x00\n        /* \"#utility.yul\":629:635   */\n      dup2\n        /* \"#utility.yul\":616:636   */\n      calldataload\n        /* \"#utility.yul\":607:636   */\n      swap1\n      pop\n        /* \"#utility.yul\":645:678   */\n      tag_41\n        /* \"#utility.yul\":672:677   */\n      dup2\n        /* \"#utility.yul\":645:678   */\n      tag_29\n      jump\t// in\n    tag_41:\n        /* \"#utility.yul\":545:684   */\n      swap3\n      swap2\n      pop\n      pop\n      jump\t// out\n        /* \"#utility.yul\":690:1019   */\n    tag_7:\n        /* \"#utility.yul\":749:755   */\n      0x00\n        /* \"#utility.yul\":798:800   */\n      0x20\n        /* \"#utility.yul\":786:795   */\n      dup3\n        /* \"#utility.yul\":777:784   */\n      dup5\n        /* \"#utility.yul\":773:796   */\n      sub\n        /* \"#utility.yul\":769:801   */\n      slt\n        /* \"#utility.yul\":766:885   */\n      iszero\n      tag_43\n      jumpi\n        /* \"#utility.yul\":804:883   */\n      tag_44\n      tag_26\n      jump\t// in\n    tag_44:\n        /* \"#utility.yul\":766:885   */\n    tag_43:\n        /* \"#utility.yul\":924:925   */\n      0x00\n        /* \"#utility.yul\":949:1002   */\n      tag_45\n        /* \"#utility.yul\":994:1001   */\n      dup5\n        /* \"#utility.yul\":985:991   */\n      dup3\n        /* \"#utility.yul\":974:983   */\n      dup6\n        /* \"#utility.yul\":970:992   */\n      add\n        /* \"#utility.yul\":949:1002   */\n      tag_30\n      jump\t// in\n    tag_45:\n        /* \"#utility.yul\":939:1002   */\n      swap2\n      pop\n        /* \"#utility.yul\":895:1012   */\n      pop\n        /* \"#utility.yul\":690:1019   */\n      swap3\n      swap2\n      pop\n      pop\n      jump\t// out\n        /* \"#utility.yul\":1025:1143   */\n    tag_31:\n        /* \"#utility.yul\":1112:1136   */\n      tag_47\n        /* \"#utility.yul\":1130:1135   */\n      dup2\n        /* \"#utility.yul\":1112:1136   */\n      tag_28\n      jump\t// in\n    tag_47:\n        /* \"#utility.yul\":1107:1110   */\n      dup3\n        /* \"#utility.yul\":1100:1137   */\n      mstore\n        /* \"#utility.yul\":1025:1143   */\n      pop\n      pop\n      jump\t// out\n        /* \"#utility.yul\":1149:1371   */\n    tag_10:\n        /* \"#utility.yul\":1242:1246   */\n      0x00\n        /* \"#utility.yul\":1280:1282   */\n      0x20\n        /* \"#utility.yul\":1269:1278   */\n      dup3\n        /* \"#utility.yul\":1265:1283   */\n      add\n        /* \"#utility.yul\":1257:1283   */\n      swap1\n      pop\n        /* \"#utility.yul\":1293:1364   */\n      tag_49\n        /* \"#utility.yul\":1361:1362   */\n      0x00\n        /* \"#utility.yul\":1350:1359   */\n      dup4\n        /* \"#utility.yul\":1346:1363   */\n      add\n        /* \"#utility.yul\":1337:1343   */\n      dup5\n        /* \"#utility.yul\":1293:1364   */\n      tag_31\n      jump\t// in\n    tag_49:\n        /* \"#utility.yul\":1149:1371   */\n      swap3\n      swap2\n      pop\n      pop\n      jump\t// out\n\n    auxdata: 0xa2646970667358221220171e607b5672d40cc7707976aad4151fdb8d0acebde63982cab4b3dec7edc8e964736f6c634300081a0033\n}\n",
				"bytecode": {
					"linkReferences": {},
					"object": "6080604052348015600e575f80fd5b506101b38061001c5f395ff3fe608060405234801561000f575f80fd5b5060043610610034575f3560e01c80632fbebd381461003857806367b5888714610068575b5f80fd5b610052600480360381019061004d919061012a565b610098565b60405161005f9190610164565b60405180910390f35b610082600480360381019061007d919061012a565b6100c7565b60405161008f9190610164565b60405180910390f35b5f600a8210156100ab57600a90506100c2565b60148210156100bd57601490506100c2565b601e90505b919050565b5f600a82106100e757601482106100df5760026100e2565b60015b6100e9565b5f5b60ff169050919050565b5f80fd5b5f819050919050565b610109816100f7565b8114610113575f80fd5b50565b5f8135905061012481610100565b92915050565b5f6020828403121561013f5761013e6100f3565b5b5f61014c84828501610116565b91505092915050565b61015e816100f7565b82525050565b5f6020820190506101775f830184610155565b9291505056fea2646970667358221220171e607b5672d40cc7707976aad4151fdb8d0acebde63982cab4b3dec7edc8e964736f6c634300081a0033",
					"opcodes": "PUSH1 0x80 PUSH1 0x40 MSTORE CALLVALUE DUP1 ISZERO PUSH1 0xE JUMPI PUSH0 DUP1 REVERT JUMPDEST POP PUSH2 0x1B3 DUP1 PUSH2 0x1C PUSH0 CODECOPY PUSH0 RETURN INVALID PUSH1 0x80 PUSH1 0x40 MSTORE CALLVALUE DUP1 ISZERO PUSH2 0xF JUMPI PUSH0 DUP1 REVERT JUMPDEST POP PUSH1 0x4 CALLDATASIZE LT PUSH2 0x34 JUMPI PUSH0 CALLDATALOAD PUSH1 0xE0 SHR DUP1 PUSH4 0x2FBEBD38 EQ PUSH2 0x38 JUMPI DUP1 PUSH4 0x67B58887 EQ PUSH2 0x68 JUMPI JUMPDEST PUSH0 DUP1 REVERT JUMPDEST PUSH2 0x52 PUSH1 0x4 DUP1 CALLDATASIZE SUB DUP2 ADD SWAP1 PUSH2 0x4D SWAP2 SWAP1 PUSH2 0x12A JUMP JUMPDEST PUSH2 0x98 JUMP JUMPDEST PUSH1 0x40 MLOAD PUSH2 0x5F SWAP2 SWAP1 PUSH2 0x164 JUMP JUMPDEST PUSH1 0x40 MLOAD DUP1 SWAP2 SUB SWAP1 RETURN JUMPDEST PUSH2 0x82 PUSH1 0x4 DUP1 CALLDATASIZE SUB DUP2 ADD SWAP1 PUSH2 0x7D SWAP2 SWAP1 PUSH2 0x12A JUMP JUMPDEST PUSH2 0xC7 JUMP JUMPDEST PUSH1 0x40 MLOAD PUSH2 0x8F SWAP2 SWAP1 PUSH2 0x164 JUMP JUMPDEST PUSH1 0x40 MLOAD DUP1 SWAP2 SUB SWAP1 RETURN JUMPDEST PUSH0 PUSH1 0xA DUP3 LT ISZERO PUSH2 0xAB JUMPI PUSH1 0xA SWAP1 POP PUSH2 0xC2 JUMP JUMPDEST PUSH1 0x14 DUP3 LT ISZERO PUSH2 0xBD JUMPI PUSH1 0x14 SWAP1 POP PUSH2 0xC2 JUMP JUMPDEST PUSH1 0x1E SWAP1 POP JUMPDEST SWAP2 SWAP1 POP JUMP JUMPDEST PUSH0 PUSH1 0xA DUP3 LT PUSH2 0xE7 JUMPI PUSH1 0x14 DUP3 LT PUSH2 0xDF JUMPI PUSH1 0x2 PUSH2 0xE2 JUMP JUMPDEST PUSH1 0x1 JUMPDEST PUSH2 0xE9 JUMP JUMPDEST PUSH0 JUMPDEST PUSH1 0xFF AND SWAP1 POP SWAP2 SWAP1 POP JUMP JUMPDEST PUSH0 DUP1 REVERT JUMPDEST PUSH0 DUP2 SWAP1 POP SWAP2 SWAP1 POP JUMP JUMPDEST PUSH2 0x109 DUP2 PUSH2 0xF7 JUMP JUMPDEST DUP2 EQ PUSH2 0x113 JUMPI PUSH0 DUP1 REVERT JUMPDEST POP JUMP JUMPDEST PUSH0 DUP2 CALLDATALOAD SWAP1 POP PUSH2 0x124 DUP2 PUSH2 0x100 JUMP JUMPDEST SWAP3 SWAP2 POP POP JUMP JUMPDEST PUSH0 PUSH1 0x20 DUP3 DUP5 SUB SLT ISZERO PUSH2 0x13F JUMPI PUSH2 0x13E PUSH2 0xF3 JUMP JUMPDEST JUMPDEST PUSH0 PUSH2 0x14C DUP5 DUP3 DUP6 ADD PUSH2 0x116 JUMP JUMPDEST SWAP2 POP POP SWAP3 SWAP2 POP POP JUMP JUMPDEST PUSH2 0x15E DUP2 PUSH2 0xF7 JUMP JUMPDEST DUP3 MSTORE POP POP JUMP JUMPDEST PUSH0 PUSH1 0x20 DUP3 ADD SWAP1 POP PUSH2 0x177 PUSH0 DUP4 ADD DUP5 PUSH2 0x155 JUMP JUMPDEST SWAP3 SWAP2 POP POP JUMP INVALID LOG2 PUSH5 0x6970667358 0x22 SLT KECCAK256 OR 0x1E PUSH1 0x7B JUMP PUSH19 0xD40CC7707976AAD4151FDB8D0ACEBDE63982CA 0xB4 0xB3 0xDE 0xC7 0xED 0xC8 0xE9 PUSH5 0x736F6C6343 STOP ADDMOD BYTE STOP CALLER "
				},
				"gasEstimates": {
					"creation": {
						"codeDepositCost": "87000",
						"executionCost": "133",
						"totalCost": "87133"
					},
					"external": {
						"foo(uint256)": "infinite",
						"tenary(uint256)": "infinite"
					}
				},
				"methodIdentifiers": {
					"foo(uint256)": "2fbebd38",
					"tenary(uint256)": "67b58887"
				}
			},
			"storageLayout": {
				"storage": [],
				"types": null
			},
			"userdoc": {
				"kind": "user",
				"methods": {},
				"version": 1
			}
		}
	}
}